:100000000A128A1103280F30831603138500031088
:10001000003003180130860003100030031801304F
:100020008700031000300318013088000A128A117B
:10003000D8270A128A1101300A128A1115260A12CB
:100040008A1180300A128A1115260A128A11BC30D0
:100050000A128A1159260A128A1164308312031374
:10006000AF000030B0000A128A112E260A128A113F
:100070000A128A11FE250A128A1100300A128A1108
:10008000BF260A128A11831203132908A301A307AA
:100090002808A201A2072308A101A1072208A001A4
:1000A000A00703302102853003192002031C5928C0
:1000B0005A28592901300A128A11BF260A128A11B8
:1000C000831203132908A701A7072808A601A6077A
:1000D00003300A128A11BF260A128A1183120313EF
:1000E0002908A501A5072808A401A40702302702B2
:1000F0008A300319260203187E287F28AD28033092
:100100002502533003192402031C87288828AD28B0
:1001100080300A128A1115260A128A1134300A1206
:100120008A1159260A128A11C0300A128A1115261C
:100130000A128A1156300A128A1159260A128A1195
:1001400015308312031387006430AF000030B00015
:100150000A128A112E260A128A1183120313023000
:1001600025028A30031924020318B728B828E62884
:1001700003302702533003192602031CC028C1286C
:10018000E62880300A128A1115260A128A112330B5
:100190000A128A1159260A128A11C0300A128A11CB
:1001A00015260A128A119A300A128A1159260A1241
:1001B0008A110E308312031387006430AF000030C1
:1001C000B0000A128A112E260A128A118312031312
:1001D00003302702533003192602031CF028F128AC
:1001E0001F2903302502533003192402031CF92868
:1001F000FA281F2980300A128A1115260A128A113C
:1002000001300A128A1159260A128A11C0300A12C4
:100210008A1115260A128A1112300A128A115926D9
:100220000A128A1108308312031387006430AF006A
:100230000030B0000A128A112E260A128A11831287
:100240000313023027028A300319260203182929D2
:100250002A295829023025028A300319240203185A
:1002600032293329582980300A128A1115260A1298
:100270008A1178300A128A1159260A128A11C0305E
:100280000A128A1115260A128A11AB300A128A1133
:1002900059260A128A11073083120313870064302B
:1002A000AF000030B0000A128A112E260A128A11FD
:1002B000572A01300A128A11BF260A128A118312A4
:1002C00003132908A701A7072808A601A6070330DA
:1002D0000A128A11BF260A128A11831203132908EF
:1002E000A501A5072808A401A407023027028A3027
:1002F0000319260203187D297E29AC290330250223
:10030000533003192402031C86298729AC29803025
:100310000A128A1115260A128A1134300A128A1119
:1003200059260A128A11C0300A128A1115260A1299
:100330008A1145300A128A1159260A128A1111307F
:100340008312031387006430AF000030B0000A123C
:100350008A112E260A128A118312031302302502F3
:100360008A30031924020318B629B729E529033076
:100370002702533003192602031CBF29C029E5298F
:1003800080300A128A1115260A128A1123300A12A5
:100390008A1159260A128A11C0300A128A111526AA
:1003A0000A128A1189300A128A1159260A128A11F0
:1003B0000A308312031387006430AF000030B000AE
:1003C0000A128A112E260A128A118312031302308E
:1003D00027028B3003192602031CEF29F0291E2A5D
:1003E00003302502533003192402031CF829F9298C
:1003F0001E2A80300A128A1115260A128A1101302B
:100400000A128A1159260A128A11C0300A128A1158
:1004100015260A128A1112300A128A1159260A1256
:100420008A1108308312031387006430AF00003054
:10043000B0000A128A112E260A128A11831203139F
:10044000023027028A30031926020318282A292A93
:10045000572A023025028A30031924020318312A50
:10046000322A572A80300A128A1115260A128A1156
:1004700078300A128A1159260A128A11C0300A12DB
:100480008A1115260A128A1167300A128A11592612
:100490000A128A1103308312031387006430AF00FD
:1004A0000030B0000A128A112E260A128A113D2845
:0604B0000A128A11002867
:100BD0002D08860088160813881701300A128A111A
:100BE00089260A128A1183120313881301300A120C
:100BF0008A1189260A128A11FD2D080001308312FC
:100C000003139F00C430831603139F000310831245
:100C100003130030031801309E00031083160313E2
:100C20000030031801309E00080083120313A8004F
:100C30002808860088120813881701300A128A11C2
:100C400089260A128A1183120313881301300A12AB
:100C50008A1189260A128A112D2E08000030B1004F
:100C60000030B2004E2E0030B3000030B4003E2EF3
:100C70000130B3070318B40A0030B4073008340257
:100C8000031D442E2F083302031C472E482E382EF6
:100C90000130B1070318B20A0030B207300832023F
:100CA000031D542E2F083102031C572E582E332EAD
:100CB000080083120313A8000030A9000030AA0026
:100CC0007B2E280829070A128A1109270A128A117D
:100CD000AB00AC012B08AD002C08AE000A128A1143
:100CE000E8250A128A11831203130130A907031899
:100CF000AA0A0030AA07280829070A128A11092718
:100D00000A128A110038031D862E872E612E882E26
:100D10000800AF000030B2000030B300AD2E00304C
:100D2000B0000030B100942E0130B0070318B10AB2
:100D30000030B1073108803AB40080303402031D1E
:100D4000A32E96303002031CA62EA72E942E01301F
:100D5000B2070318B30A0030B3072F08B400B50177
:100D60003308803AB6003508803A3602031DBA2EA1
:100D700034083202031CBD2EBE2E8F2E08008312B3
:100D80000313AA00C730AB002B089F052A08AB004D
:100D900002300310AB0DFF3E031DC92E03102B0DB7
:100DA000AC002C089F040A30AF000030B0000A12DB
:100DB0008A112E260A128A11831203131F15E02EA0
:100DC0001F19E32EE42EE02E831603138312031360
:100DD0001E08AB00AC010830AD000310AB0DAC0D2C
:100DE000AD0BED2E831603131E08831203132B077E
:100DF000A8000030031801302C07A900FF2E0800BE
:100E0000FE00FE1F082F83137E18831700080800BA
:100E10000408FE0007308A007E088207003442344E
:100E20004134543454342D3432342034203420347A
:100E3000203420342034463455344C344C3400347F
:100E400042344134543454342D3431342034203439
:100E50002034203420342034463455344C344C343F
:100E6000003442344134543454342D343234203438
:100E700020344334483441345234473449344E34B6
:100E80004734003442344134543454342D343134F2
:100E900020342034433448344134523447344934C4
:100EA0004E344734003442344134543454342D34B5
:100EB00032342034463455344C344C3420342034CD
:100EC00020344134433400344234413454345434B3
:100ED0002D3432342034463455344C344C342034A0
:100EE00053344F344C342E3400344334483441347A
:100EF0005234473449344E3447342034203420347B
:100F000020342034203441344334003442344134DA
:100F1000543454342D3431342034203420342034AB
:100F200042344134543454342D3432340034423455
:100F30004134543454342D3431342034463455340F
:100F40004C344C3420342034203441344334003485
:100F500042344134543454342D3431342034463402
:100F600055344C344C34203453344F344C342E34B8
:100F700000344334483441345234473449344E34D5
:100F80004734203420342034203453344F344C340C
:100F90002E34003453344F344C34413452342034E2
:100FA00043344834413452344734453452340034A5
:100FB00038300A128A1115260A128A110C300A12C8
:100FC0008A1115260A128A1101300A128A11152671
:100FD0000A128A1106300A128A1115260A128A117B
:0E0FE00080300A128A1115260A128A110800A2
:00000001FF
